:100000001012203411201000122041004101410241
:100010004103410441054106410700000000000082
:10002000000000000000000000000000410041014D
:100030004102410341044005410641070000000020
:10004000000000000000000000000000000041006F
:1000500041014102410341044105400641070000BE
:100060000000000000000000000000000000000090
:10007000410041014102410341044005400641075E
:100080000000000000000000000000000000000070
:100090000000410041014102410341044105410684
:1000A0004007000000000000000000000000000009
:1000B00000000000410041014102410341044005AC
:1000C00041064007000000000000000000000000A2
:1000D00000000000000041004101410241034104D1
:1000E000410540064007000000000000000000003D
:1000F00000000000000000004100410141024103F6
:1001000041044005400640070000000000000000D8
:10011000000000000000000000004000400140021C
:100120004003400440054006400700000000000076
:10013000000000000000000000000000410041013C
:10014000410241034104410541064007000000000F
:100150000000000000000000000000000000300A65
:01016000009E
:00000001FF
