:10000000100120021101120141104111411241134E
:10001000401441154116411740004101400241037F
:1000200041044005410640070000000000000000B8
:1000300000000000000000000000000000000000C0
:100040000040104111411241134014411541164125
:100050001741004101400240034004400541064170
:100060000700000000000000000000000000000089
:10007000000000000000000000004110401141128B
:1000800041134014411541164117410040014102FE
:100090004003400441054006410700000000000005
:1000A0000000000000000000000000000000000050
:1000B000000000401040114112411340144115410D
:1000C00016411740004001410241034104410540EF
:1000D00006400700000000000000000000000000D3
:0F00E000000000000000000000000000300800D9
:00000001FF
