:10000000100520031110100012104110411141126F
:1000100041134100410141024103410441054106B0
:1000200041074000410141024103410441054106AD
:10003000410741124012411240104111400041015C
:10004000410241034104410540064107411240126B
:100050004112410041014002410341044105400673
:100060004107411240124112410040014002410348
:100070004004410540064107411240124112400030
:10008000410141024103410441054006410741123B
:100090004012411241004001400240034104410529
:1000A0004006410741124012411240004001410206
:1000B00041034104410540064107411240124112EB
:1000C000400041014002410341044105400641070F
:1000D00041124012411241004101400241034104DA
:1000E00041054006410741124012411241004101C1
:1000F00041024103410440054106410741124012BB
:1001000041124000400140024003410441054006C5
:100110004107411240124112400040014102400398
:10012000410441054006410741124012411240136B
:1001300000000000000000000000000000000000BF
:10014000000000004113000000000000000000005B
:0D01500000000000000000000000302E0143
:00000001FF
